:020000040800F2
:1000000000400220150C0008190B00081F0B000807
:1000100000000000000000000000000000000000E0
:10002000000000000000000000000000650C000857
:100030000000000000000000650C0008650C0008CE
:10004000650C000800000000650C0008650C000845
:10005000650C0008650C0008650C0008650C0008BC
:10006000650C0008650C0008650C0008650C0008AC
:10007000650C0008650C0008650C00080000000015
:10008000650C0008650C0008650C0008650C00088C
:10009000650C0008650C0008650C0008650C00087C
:1000A000650C0008650C0008650C0008250B0008AD
:0800B000650C0008650C000856
:1000B80010B5064C2378002B07D1054B002B02D036
:1000C800044800E000BF0123237010BD0000002099
:1000D8000000000018160008044B10B5002B03D0D0
:1000E8000349044800E000BF10BDC04600000000FE
:1000F800040000201816000803460B437FD4002292
:1001080043088B4274D303098B425FD3030A8B42A3
:1001180044D3030B8B4228D3030C8B420DD3FF220D
:10012800090212BA030C8B4202D31212090265D0DB
:10013800030B8B4219D300E0090AC30B8B4201D38E
:10014800CB03C01A5241830B8B4201D38B03C01AD5
:100158005241430B8B4201D34B03C01A5241030B4C
:100168008B4201D30B03C01A5241C30A8B4201D3FD
:10017800CB02C01A5241830A8B4201D38B02C01AA8
:100188005241430A8B4201D34B02C01A5241030A1F
:100198008B4201D30B02C01A5241CDD2C3098B4204
:1001A80001D3CB01C01A524183098B4201D38B0181
:1001B800C01A524143098B4201D34B01C01A524124
:1001C80003098B4201D30B01C01A5241C3088B4269
:1001D80001D3CB00C01A524183088B4201D38B0054
:1001E800C01A524143088B4201D34B00C01A5241F6
:1001F800411A00D201465241104670475DE0CA0FCD
:1002080000D04942031000D34042534000229C468C
:1002180003098B422DD3030A8B4212D3FC22890196
:1002280012BA030A8B420CD3890192118B4208D36C
:10023800890192118B4204D389013AD0921100E0CE
:100248008909C3098B4201D3CB01C01A52418309E2
:100258008B4201D38B01C01A524143098B4201D30F
:100268004B01C01A524103098B4201D30B01C01A3A
:100278005241C3088B4201D3CB00C01A52418308B4
:100288008B4201D38B00C01A5241D9D243088B420A
:1002980001D34B00C01A5241411A00D201466346AD
:1002A80052415B10104601D34042002B00D5494211
:1002B800704763465B1000D3404201B5002000F050
:1002C80005F802BD0029F8D016E770477047C04608
:1002D800002B15D1002A13D1002906DB01DC0028E8
:1002E80006D00020C043410802E080210906002012
:1002F80007B4024801A14018029003BDD1FFFFFFD7
:1003080003B4684601B5029800F02EF8019B9E469A
:1003180002B00CBC7047C046F0B515042D0C0F0098
:1003280001002E00C64684460004140C000C090C7B
:1003380046434D43604361434019340C241800B5CB
:10034800A54203D98020400280464144250C6D18FF
:10035800614659437A43300449192404000C201893
:10036800891880BCB846F0BDF8B5CE46474680B57A
:100378009146984604000D0000F014F807000E009E
:1003880002000B0048464146FFF7C6FF241A8D417C
:10039800089B380031001C605D60C0BCB946B0469F
:1003A800F8BDC046F0B557464E464546DE46E0B570
:1003B8000F001900002306009846100083B0002F94
:1003C80007DA33003C0000275E42A74101235B4265
:1003D8009846002907DA4346DB430C009846030099
:1003E80000215842A14134003D0082468946B94265
:1003F8006AD867D04946504600F0BAF883463900B3
:10040800300000F0B5F85B461B1A9C46203B9B4623
:100418006BD458465146814060460B005146814096
:100428000A00BB4200D972E0BB4200D179E0340037
:100438003D005946A41A9D41002900DA74E00021C4
:10044800002001260090019159468E400196614690
:1004580001268E406146009600295FD0D9075608CC
:100468000E435F086146012200230CE0AF4201D130
:10047800A6420AD8A41BBD4124196D410139A4180C
:100488005D41002906D0AF42F0D9013924196D41E8
:100498000029F8D1009801995B4600196941002BA1
:1004A8004DDB2E002C00DE406346DC405B46002B13
:1004B80055DB34009C4023006446A6403200801A75
:1004C800994103E0B04295D9002000214346002B12
:1004D80004D003000C0000215842A14103B0F0BC35
:1004E800BB46B246A946A046F0BD62464846202310
:1004F800514690409B1AD9400300009100996046EC
:100508000B43514681400A00BB4200D88CE70021CA
:10051800002000900191614600299FD1009801991F
:10052800D4E7B142F3D882E7614620260127761A3C
:1005380000200021F74000900191019787E762466B
:1005480020239B1A2A009A40260013006246D640B0
:100558002C001E436346DC405B46002BA9DA62464A
:100568002023350094409B1ADD4023002B43A3E74A
:1005780010B5002903D100F007F8203002E0081C6C
:1005880000F002F810BDC0461C2101231B0498424C
:1005980001D3000C10391B0A984201D3000A08390C
:1005A8001B09984201D30009043902A2105C4018C3
:1005B8007047C04604030202010101010000000067
:1005C8000000000080B584B000AF786039603B68F7
:1005D800FF2213403B607B681B027B607B682E4ACE
:1005E80013403A6813433B603B682C4A13403B6016
:1005F8002B4B9A692A4B802189030A439A61284B1D
:100608009A69274B8021C9030A439A610023FB603A
:100618002BE0234B9A69224B802109040A439A61F3
:100628003A6880231B04134006D01D4B9A691C4B63
:1006380040210A439A6106E0194B9A69184B8021B8
:10064800C9030A439A613B685B003B600A2000F0DB
:1006580063FF134B9A69124B80210A439A610A205F
:1006680000F05AFFFB680133FB60FB68172BD0DDF5
:100678000B4B9A690A4B802109040A439A610A20A4
:1006880000F04AFF064B9A69054B20210A439A61FC
:10069800C046BD4604B080BD00FFFF00FFFF7FFFDE
:1006A8000004005080B584B000AF78600F23FB18B9
:1006B80000221A707B681B027B607B68374A1340F4
:1006C8007B607B688022120413437B60344B9A69F9
:1006D800334B802189030A439A61314B9A69304B25
:1006E8008021C9030A439A610023BB603CE02C4B7C
:1006F8009A692B4B802109040A439A617A688023FE
:100708001B04134006D0264B9A69254B40210A4307
:100718009A6106E0224B9A69214B8021C9030A435A
:100728009A617B685B007B600A2000F0F5FE1C4B39
:100738009A691B4B80210A439A610A2000F0ECFE5B
:100748000F217A187B181B78DB181370144B1B6960
:100758001022134005D07B187A18127801210A4319
:100768001A70BB680133BB60BB68172BBFDD0C4B2D
:100778009A690B4B802109040A439A610A2000F008
:10078800CBFE074B9A69064B20210A439A610F2337
:10079800FB181B781800BD4604B080BD00FFFF00A1
:1007A8000004005080B500AF2E4B9A692D4B2021D4
:1007B8000A439A612B4B9A692A4B8021C9030A4341
:1007C8009A61284B9A69274B802109040A439A6148
:1007D800244B9A69234B802149040A439A610521D5
:1007E8000220FFF7EFFE0A2000F04CFE0121022054
:1007F800FFF7E8FE3A212720FFF7E4FEA021222098
:10080800FFF7E0FE08211B20FFF7DCFE1F211C205C
:10081800FFF7D8FE02211920FFF7D4FEFF21182088
:10082800FFF7D0FEFF211720FFF7CCFEFF2116208F
:10083800FFF7C8FE2F211520FFF7C4FEF221142070
:10084800FFF7C0FE2F211320FFF7BCFE3021122036
:10085800FFF7B8FE21211020FFF7B4FEC046BD46C1
:1008680080BDC04600040050F0B591B000AF78617B
:100878000023BB63002200233A637B630023FB62EF
:100888007B6954491800FFF737FC0300BB637B6999
:1008980050491800FFF716FD0B003B62DB177B621F
:1008A800386A796A02000B00160A1D0635431406D9
:1008B800241A8D4120002900464A0023FFF708FD2D
:1008C80002000B003A637B63BB6B424A53431C0034
:1008D800404A0023386B796BFFF71EFD02000B00BE
:1008E800100019003C4A0023FFF7F2FC02000B003D
:1008F8001300E318FB622D2010243B191B1800225B
:100908001A703B6A7A6A134327D02F233A19D118F1
:100918003A6B7B6B131C0B707B6B1B063A6B120AD2
:10092800BA60BA681A43BA607B6B1B12FB602E234D
:1009380010229446BC4463443A7A1A707B6B1B04B9
:100948003A6B120C3A603A681A433A607B6B1B1494
:100958007B603B191B183A781A700F241026BB19B4
:100968001B19BA6B1A70BB6B1A120E25BB195B19CF
:100978001A702D2310229446BC4463441B78190036
:100988001520FFF71FFE2E2310229446BC44634413
:100998001B7819001420FFF715FE2F231022944608
:1009A800BC4463441B7819001320FFF70BFEBB19E6
:1009B8005B191B7819001120FFF704FEBB191B19DE
:1009C8001B7819001020FFF7FDFDFB6A1800BD46D3
:1009D80011B0F0BD10270000FFFFFF0080B500AF89
:1009E800114B00221A60114B00221A6000F024F803
:1009F80000F0E0FD00F0C0F9642000F043FDFFF7CF
:100A0800D1FE0B4B180000F0F1F90A2000F03AFD76
:100A1800064B1B68002BFBD0064B180000F078FB38
:100A2800024B00221A60F3E748000020440000202F
:100A3800301600081C00002080B500AF2D4B1A6846
:100A48002C4B2D490A401A60C0462A4B1A6880234D
:100A58009B041340F9D1274B284ADA60254B1A68C2
:100A6800244B802149040A431A60C046214B1A6866
:100A780080239B041340F9D01E4B1A6A1D4B20217A
:100A88000A431A621B4B9A681A4B02210A439A605E
:100A9800C046184B9B6810221340FAD0154B5A6B6E
:100AA800144B03210A435A63154B012252429A60A0
:100AB800A023DB05C02212059A60114B1A68104B5F
:100AC80010490A401A600E4B1A680D4B0E490A402D
:100AD8001A60A023DB051A68A023DB050B490A402E
:100AE8001A60A023DB05882252005A62C046BD4620
:100AF80080BDC04600100240FFFFFFFE120C00320E
:100B0800000400507F57FDFFFFFCFFFFFFFFEBFFD6
:100B180080B500AFFEE780B500AFFEE780B582B0D4
:100B280000AF354BDB692022134055D0324B5A6A4F
:100B3800FB1D1A70FB1D1B78092B06D12F4B1800C3
:100B480000F054F9FB1D0D221A70FB1D1B78082BB1
:100B580003D0FB1D1B787F2B0DD1294B1B68002B65
:100B680009DD274B1B685A1E254B1A60224BFA1DBC
:100B780012789A623DE0FB1D1B78082B03D0FB1D01
:100B88001B787F2B03D11E4B1B68002B30DDFB1D10
:100B98001B781F2B03D8FB1D1B780D2B29D1164B57
:100BA800FA1D12789A62164B1B68164AF91D0978C5
:100BB800D154FB1D1B780D2B08D1114B1B68114A12
:100BC8000021D154104B01221A6012E00C4B1B6813
:100BD8005A1C0B4B1A600CE0074BDB6908221340C8
:100BE80007D0054B1A6A044B08210A431A6200E031
:100BF800C046BD4602B080BD00380140501600080E
:100C0800480000201C000020440000200D488546B4
:100C180000F025F80C480D490D4A002302E0D4588D
:100C2800C4500433C4188C42F9D30A4A0A4C00232E
:100C380001E013600432A242FBD300F0C5FCFFF7C9
:100C4800CDFEFEE70040022000000020000000204A
:100C5800D4170008000000204C000020FEE780B5F3
:100C680000AFC046BD4680BD80B582B000AF02006F
:100C7800FB1D1A70FB1D1B787F2B09D8FB1D1B78E9
:100C88001A001F231A40044B012191400A001A60E0
:100C9800C046BD4602B080BD00E100E090B583B01B
:100CA80000AF02003960FB1D1A70FB1D1B787F2BFB
:100CB80028D82F4AFB1D1B785BB29B08C0339B00CA
:100CC8009B58FA1D1278110003220A40D200FF2116
:100CD80091400A00D2431A4011003B689B01FF2251
:100CE8001A40FB1D1B78180003230340DB009A40C1
:100CF8001F48FB1D1B785BB29B080A43C0339B004F
:100D08001A5031E01B4AFB1D1B7819000F230B40BA
:100D1800083B9B0806339B00D31804331B68FA1D55
:100D28001278110003220A40D200FF2191400A00E4
:100D3800D2431A4011003B689B01FF221A40FB1D59
:100D48001B78180003230340DB009A400948FB1D69
:100D58001B781C000F232340083B9B080A430633DB
:100D68009B00C31804331A60C046BD4603B090BD4B
:100D780000E100E000ED00E080B500AF174B1A6C11
:100D8800164B8021C9010A431A64154B154ADA60CB
:100D9800134B1A68124B04210A431A60104B1A6845
:100DA8000F4B08210A431A600D4B0F4A5A610C4B2E
:100DB8001A680B4B01210A431A60094B1A68084B41
:100DC80020210A431A601B20FFF74EFF02211B2037
:100DD800FFF764FFC046BD4680BDC0460010024014
:100DE8000038014088130000FFFFFF0080B584B081
:100DF80000AF78600023FB600EE0FB687A68D318C8
:100E08001A780B4B9A62FB680133FB60C046084BAB
:100E1800DB6940221340FAD0FB687A68D3181B7844
:100E2800002BEAD1C046C046BD4604B080BDC046CE
:100E38000038014080B58AB000AF7860396000237F
:100E48007B620C23FB18314A03CA03C3118819803B
:100E580092789A7000233B620123FB617B681B78C0
:100E68002D2B08D101235B42FB613B68013B3B60B2
:100E780001233B623BE07B681B782B2B37D1012396
:100E8800FB613B68013B3B6001233B622FE0002391
:100E9800BB610DE00C23FA18BB69D3181A783B6ABA
:100EA8007968CB181B789A420AD0BB690133BB61B9
:100EB8000C23FA18BB69D3181B78002BEAD100E081
:100EC800C0467A6A13009B009B185B007B62BB6973
:100ED8007A6AD3187B623B6A01333B623B68013B09
:100EE8003B603B6A7A68D3181B78002B03D03B68B9
:100EF800002BCCD100E0C046FA697B6A53437B6281
:100F08007B6A1800BD460AB080BDC046641600085A
:100F180080B586B000AF786000237B6100233B6119
:100F280013E00023FB603B697A68D3181B78312BE8
:100F380001D10123FB607B695B007B61FB687A69F7
:100F4800D3187B613B6901333B613B697A68D318ED
:100F58001B78002BE5D17B691800BD4606B080BD23
:100F680090B58BB000AF786000237B620823FB1834
:100F78001C4A13CA13C31168196012791A71002325
:100F88003B6223E00023FB610DE00823FA18FB69AC
:100F9800D3181A783B6A7968CB181B789A420AD01A
:100FA800FB690133FB610823FA18FB69D3181B7826
:100FB800002BEAD100E0C0467B6A1B017B62FB691B
:100FC8007A6AD3187B623B6A01333B623B6A7A6870
:100FD800D3181B78002BD5D17B6A1800BD460BB0FF
:100FE80090BDC0467016000880B582B000AF78602A
:100FF80039600DE07B681B78002B0FD03B681B78AD
:10100800002B0BD07B6801337B603B6801333B606E
:101018007B681A783B681B789A42EBD03B681B7850
:10102800002B01D1002301E001235B421800BD46DB
:1010380002B080BD90B58BB000AF786039600C23EA
:10104800FB18164A13CA13C31168196012791A716A
:101058003B687B627B683B627B6A01337B623B6AED
:101068001B093B623B6A002BF6D17B6A00221A708F
:101078007B680F2213407A6A013A7A620C22BA1806
:10108800D25C7B6A1A707B681B097B607B68002BCB
:10109800EED13B681800BD460BB090BD7016000835
:1010A80080B586B000AF786039600C23FB18174A0A
:1010B8001188198092789A703B687B617B683B61E4
:1010C8007B6901337B613B69002B00DA01335B10DC
:1010D8003B613B69002BF3D17B6900221A707B6866
:1010E800012213407A69013A7A610C22BA18D25C5B
:1010F8007B691A707B685B087B607B68002BEED18C
:101108003B681800BD4606B080BDC046CC16000836
:1011180090B59DB000AF7860B74B1B68002B05D128
:10112800B64B1800FFF762FE012361E1B44AB54BE4
:1011380011001800FFF758FF031E04D1B24B180026
:10114800FFF754FE4CE1B14AAE4B11001800FFF70F
:101158004BFF031E3DD18D237B650023FB6633E0E7
:10116800FB6E1800FFF79EFA03003B65FB6E0C242C
:101178003A1911001800FFF75DFFA54B1800FFF79B
:1011880035FE3B191800FFF731FE3B6D3A19110087
:101198001800FFF74FFF9F4B1800FFF727FE3B197A
:1011A8001800FFF723FE3B6D3A1911001800FFF7EE
:1011B80077FF994B1800FFF719FE3B191800FFF746
:1011C80015FEFB6E0133FB66FA6E7B6D9A42C7DD36
:1011D80006E1924A8B4B11001800FFF705FF031E2A
:1011E80000D0CFE00123BB660BE0BB6E013B854915
:1011F800BA6E8A1811784422BA18D154BB6E0133DA
:10120800BB66804ABB6ED3181B78202BEDD1BB6E12
:10121800013B44203A180021D1543B1804211800FE
:10122800FFF708FE0300FB65BB6E5A1C754BD3180D
:101238007B4A11001800FFF7D7FE031E31D1FB6D62
:101248001800FFF72FFA0300BB650C243A19FB6D51
:1012580011001800FFF7EEFE6D4B1800FFF7C6FDF2
:101268003B191800FFF7C2FD3A19BB6D11001800B1
:10127800FFF7E0FE674B1800FFF7B8FD3B191800B1
:10128800FFF7B4FD3A19BB6D11001800FFF708FF0E
:10129800614B1800FFF7AAFD3B191800FFF7A6FDE0
:1012A8009EE0BB6E9A1C574BD3185E4A110018007B
:1012B800FFF79AFE031E2AD1BB6EDA1C514BD318D6
:1012C8001800FFF725FE03007B66574B1800FFF751
:1012D8008DFD30243A197B6E11001800FFF7E0FEEF
:1012E800524B1800FFF782FD3B191800FFF77EFDEF
:1012F8003A19FB6D11001800FFF79CFE4C4B1800C3
:10130800FFF774FD3B191800FFF770FD26E0BB6E70
:101318009A1C3C4BD318474A11001800FFF764FE8B
:10132800031E0DD1BB6EDA1C364BD3181800FFF71D
:1013380017FE03007B66404B1800FFF757FD0DE0D2
:10134800BB6E5A1C2F4BD31805211800FFF772FDEE
:1013580003007B66394B1800FFF748FD7B6EFF2BB7
:1013680004D9374B1800FFF741FD39E0FB6DDBB2BC
:101378007A6E11001800FFF725F9324B1800FFF7B5
:1013880035FD2DE0304A1F4B11001800FFF72CFEE9
:10139800031E21D101233B660BE03B6E013B7A68BB
:1013A800D31818493A6E8A1812781A703B6E0133AE
:1013B8003B66144A3B6ED3181B78202BEDD13B6E4D
:1013C8005A1C104BD31808211800FFF733FD0300EF
:1013D8001800FFF749FA03E01C4B1800FFF706FD59
:1013E800054B00221A60054B1800FFF7FFFC00238D
:1013F8001800BD461DB090BD48000020D01600085A
:10140800DC1600081C000020E4160008F01600088E
:10141800F8160008FC160008041700080C17000846
:101428001017000814170008181700082C170008D0
:101438003C17000840170008441700085817000810
:101448006C1700088C1700089C170008A0170008E4
:1014580080B500AF084BDA6B074B10210A43DA63FB
:10146800064B074A9A62054B0022DA62034B0122B7
:101478005A61C046BD4680BD0010024000100040C1
:101488007FBB000080B582B000AF7860154B0122A9
:101498005A61144B7A68DA62124B01225A62114B74
:1014A8001A68104B01210A431A600E4B1A690D4B3A
:1014B80001218A431A61C0460A4B1B690122134065
:1014C800FAD0084B1A69074B01218A431A61054B68
:1014D8001A68044B01218A431A60C046BD4602B00F
:1014E80080BDC0460010004080B500AF084BDA6BE5
:1014F800074B20210A43DA63064B2F229A62054BD9
:101508000122DA62034B01225A61C046BD4680BD02
:10151800001002400014004080B582B000AF78602F
:101528007B68012B1EDCC046C046C046C046C0468C
:10153800C046C046C046C046C046C046C046C04673
:10154800C046C046C046C046C046C046C046C04663
:10155800C046C046C046C046C046C046C0467B6876
:10156800012B21D0124B01225A61114B7A68DA62A1
:101578000F4B02225A620E4B1A680D4B01210A4387
:101588001A600B4B1A690A4B01218A431A61C0463B
:10159800074B1B6901221340FAD0054B1A68044B0C
:1015A80001218A431A6000E0C046BD4602B080BDF2
:1015B8000014004080B500AFFFF74AFFFFF794FF23
:1015C800C046BD4680BD000070B500260C4D0D4CD0
:1015D800641BA410A64209D1002600F019F80A4D90
:1015E8000A4C641BA410A64205D170BDB300EB5889
:1015F80098470136EEE7B300EB5898470136F2E713
:10160800CC170008CC170008CC170008D017000822
:10161800F8B5C046F8BC08BC9E467047F8B5C04649
:08162800F8BC08BC9E467047A7
:101630000D4D4355204F4E2E2053797374656D2008
:1016400072656164792E0D0A41524D203E200000E2
:101650000D0A54414220756E737570706F72746517
:1016600064210000303132333435363738390000E8
:1016700030313233343536373839414243444546C8
:10168000000000007A797877767574737271706FE4
:101690006E6D6C6B6A696867666564636261393830
:1016A00037363534333231303132333435363738FA
:1016B000396162636465666768696A6B6C6D6E6FD9
:1016C000707172737475767778797A0030310000B2
:1016D0000D0A41524D203E200000000068656C70EC
:1016E000000000000D0A4E6F2068656C702E00002F
:1016F00052202D616C6C00000D0A52003A203078A7
:1017000000000000202D2030620000005200000088
:101710003F000000620000000D0A42696E202D208B
:10172000776F726B696E67202E2E2E0020446563E2
:101730006F6465643A2030620000000020520000AF
:10174000780000000D0A486578202D20776F726BB5
:10175000696E67202E2E2E000D0A446563202D2011
:10176000776F726B696E67202E2E2E000D0A457200
:1017700072202D20496E707574206E756D626572D1
:1017800020746F6F206C6172676521000D0A5365CC
:101790006E64696E67202D204F4B000046000000EC
:1017A0000D0A556E7265636F676E697A65642063B2
:1017B0006F6D6D616E642E205472792068656C7057
:0417C0002E000000F7
:0817C400E8EBFF7F01000000CB
:0417CC00E100000830
:0417D000B900000854
:0400000508000C15CE
:00000001FF
