:020000040800F2
:100000000040022089050008550200085B02000834
:1000100000000000000000000000000000000000E0
:10002000000000000000000000000000D9050008EA
:100030000000000000000000D9050008D9050008F4
:10004000D905000800000000D9050008D9050008FE
:10005000D9050008D9050008D9050008D905000808
:10006000D9050008D9050008D9050008D9050008F8
:10007000D9050008D9050008D905000800000000CE
:10008000D9050008D9050008D9050008D9050008D8
:10009000D9050008D9050008D9050008D9050008C8
:1000A000D9050008D9050008D90500086102000833
:0800B000D9050008D90500087C
:1000B80010B5064C2378002B07D1054B002B02D036
:1000C800044800E000BF0123237010BD0000002099
:1000D80000000000580F0008044B10B5002B03D097
:1000E8000349044800E000BF10BDC04600000000FE
:1000F80004000020580F000880B500AF184B0022FC
:100108001A60184B00221A6000F034F800F0F2FE72
:1001180000F0ECFA144B9A69134B802109030A4347
:100128009A61642000F04EFE00F082F90F4B18002F
:1001380000F016FB0A2000F045FE0B4B9A690A4BAB
:1001480008210A439A61074B1B68002BFBD0084B18
:10015800180000F097FC034B00221A60F3E7C04632
:10016800480000204400002000040050700F0008E0
:100178001C00002080B500AF2D4B1A682C4B2D4970
:100188000A401A60C0462A4B1A6880239B04134011
:10019800F9D1274B284ADA60254B1A68244B80216D
:1001A80049040A431A60C046214B1A6880239B04FD
:1001B8001340F9D01E4B1A6A1D4B20210A431A62BC
:1001C8001B4B9A681A4B02210A439A60C046184B87
:1001D8009B6810221340FAD0154B5A6B144B03211D
:1001E8000A435A63154B012252429A60A023DB0549
:1001F800C02212059A60114B1A68104B10490A4028
:100208001A600E4B1A680D4B0E490A401A60A0235B
:10021800DB051A68A023DB050B490A401A60A023F6
:10022800DB05882252005A62C046BD4680BDC046E2
:1002380000100240FFFFFFFE120C003200040050C5
:100248007FD5FFFFFF3FFFFFFFFFEBFF80B500AF4C
:10025800FEE780B500AFFEE780B582B000AF354B52
:10026800DB692022134055D0324B5A6AFB1D1A70A5
:10027800FB1D1B78092B06D12F4B180000F070FAD4
:10028800FB1D0D221A70FB1D1B78082B03D0FB1DCC
:100298001B787F2B0DD1294B1B68002B09DD274BC1
:1002A8001B685A1E254B1A60224BFA1D12789A6257
:1002B8003DE0FB1D1B78082B03D0FB1D1B787F2B13
:1002C80003D11E4B1B68002B30DDFB1D1B781F2B39
:1002D80003D8FB1D1B780D2B29D1164BFA1D12785C
:1002E8009A62164B1B68164AF91D0978D154FB1DF2
:1002F8001B780D2B08D1114B1B68114A0021D154D2
:10030800104B01221A6012E00C4B1B685A1C0B4B55
:100318001A600CE0074BDB690822134007D0054B35
:100328001A6A044B08210A431A6200E0C046BD4617
:1003380002B080BD00380140900F0008480000203E
:100348001C0000204400002080B584B000AF0200EB
:100358003960FB1D1A703B68072293433B60FB1D05
:100368001B78072213403A6813433B602023FB6045
:100378002E4B9A692D4B802149030A439A612B4BD6
:100388009A692A4B802189030A439A6129E0274BFD
:100398009A69264B8021C9030A439A613B68002B5E
:1003A80006DA224B9A69214B20210A439A6106E01A
:1003B8001E4B9A691D4B802189030A439A613B6849
:1003C8005B003B600A2000F047FD184B9A69174B09
:1003D80040210A439A610A2000F03EFDFB68013B78
:1003E800FB60FB68002BD2D1104B9A690F4B802120
:1003F800C9030A439A610A2000F02EFD0B4B9A6943
:100408000A4B10210A439A610A2000F025FD074B88
:100418009A69064B802149030A439A610A2000F031
:100428001BFDC046BD4604B080BDC0460004005058
:1004380080B500AF4B4B00221A774A4B01225A77FE
:10044800484B02229A77474B0322DA77454B202202
:1004580004219954434B212205219954414B2222CE
:10046800062199543F4B404A1A603E4B3F4A5A6016
:100478003C4B3F4A9A603B4B3E4ADA60394B3E4A16
:100488001A61384B3D4A5A61364B00229A61354B06
:1004980021229A5C334B5B6919001000FFF754FF67
:1004A800142000F08FFC2F4B20229A5C2D4B1B69E7
:1004B80019001000FFF748FF2A4BDA7F294BDB6849
:1004C80019001000FFF740FF264B9A7F254B9B68C9
:1004D80019001000FFF738FF224B5A7F214B5B6849
:1004E80019001000FFF730FF1E4B1A7F1D4B1B68C9
:1004F80019001000FFF728FF1A4B21229A5C194BAC
:100508005B6919001000FFF71FFF164B20229A5C49
:10051800144B1B6919001000FFF716FF114BDA7F07
:10052800104BDB6819001000FFF70EFF0D4B9A7F88
:100538000C4B9B6819001000FFF706FF094B5A7F08
:10054800084B5B6819001000FFF7FEFE054B1A7F89
:10055800044B1B6819001000FFF7F6FEC046BD46A5
:1005680080BDC0464C0000200080D38011800080F0
:10057800C21F01580B00000134828C600500400145
:100588000D48854600F025F80C480D490D4A002312
:1005980002E0D458C4500433C4188C42F9D30A4A30
:1005A8000A4C002301E013600432A242FBD300F09E
:1005B800ABFCFFF7A1FDFEE7004002200000002091
:1005C800000000200C11000800000020700000202E
:1005D800FEE780B500AFC046BD4680BD80B582B09D
:1005E80000AF0200FB1D1A70FB1D1B787F2B09D87A
:1005F800FB1D1B781A001F231A40044B0121914050
:100608000A001A60C046BD4602B080BD00E100E0A5
:1006180090B583B000AF02003960FB1D1A70FB1D56
:100628001B787F2B28D82F4AFB1D1B785BB29B08B1
:10063800C0339B009B58FA1D1278110003220A4010
:10064800D200FF2191400A00D2431A4011003B68B2
:100658009B01FF221A40FB1D1B781800032303404F
:10066800DB009A401F48FB1D1B785BB29B080A43BE
:10067800C0339B001A5031E01B4AFB1D1B78190040
:100688000F230B40083B9B0806339B00D318043309
:100698001B68FA1D1278110003220A40D200FF21BC
:1006A80091400A00D2431A4011003B689B01FF2287
:1006B8001A40FB1D1B78180003230340DB009A40F7
:1006C8000948FB1D1B781C000F232340083B9B088F
:1006D8000A4306339B00C31804331A60C046BD465C
:1006E80003B090BD00E100E000ED00E080B500AF90
:1006F800174B1A6C164B8021C9010A431A64154B13
:10070800154ADA60134B1A68124B04210A431A601F
:10071800104B1A680F4B08210A431A600D4B0F4AF9
:100728005A610C4B1A680B4B01210A431A60094B9A
:100738001A68084B20210A431A601B20FFF74EFF56
:1007480002211B20FFF764FFC046BD4680BDC0469E
:10075800001002400038014088130000FFFFFF002E
:1007680080B584B000AF78600023FB600EE0FB68C2
:100778007A68D3181A780B4B9A62FB680133FB60CE
:10078800C046084BDB6940221340FAD0FB687A6800
:10079800D3181B78002BEAD1C046C046BD4604B02A
:1007A80080BDC0460038014080B58AB000AF78608F
:1007B800396000237B620C23FB18314A03CA03C348
:1007C8001188198092789A7000233B620123FB619B
:1007D8007B681B782D2B08D101235B42FB613B68AA
:1007E800013B3B6001233B623BE07B681B782B2B82
:1007F80037D10123FB613B68013B3B6001233B622E
:100808002FE00023BB610DE00C23FA18BB69D31855
:100818001A783B6A7968CB181B789A420AD0BB6968
:100828000133BB610C23FA18BB69D3181B78002B62
:10083800EAD100E0C0467A6A13009B009B185B006F
:100848007B62BB697A6AD3187B623B6A01333B627D
:100858003B68013B3B603B6A7A68D3181B78002BE6
:1008680003D03B68002BCCD100E0C046FA697B6A14
:1008780053437B627B6A1800BD460AB080BDC04600
:10088800A40F000880B586B000AF786000237B61B4
:1008980000233B6113E00023FB603B697A68D318AF
:1008A8001B78312B01D10123FB607B695B007B61E5
:1008B800FB687A69D3187B613B6901333B613B690B
:1008C8007A68D3181B78002BE5D17B691800BD46E0
:1008D80006B080BD90B58BB000AF786000237B6216
:1008E8000823FB181C4A13CA13C31168196012792C
:1008F8001A7100233B6223E00023FB610DE008230B
:10090800FA18FB69D3181A783B6A7968CB181B78F0
:100918009A420AD0FB690133FB610823FA18FB6984
:10092800D3181B78002BEAD100E0C0467B6A1B0174
:100938007B62FB697A6AD3187B623B6A01333B624C
:100948003B6A7A68D3181B78002BD5D17B6A1800CC
:10095800BD460BB090BDC046B00F000880B582B050
:1009680000AF786039600DE07B681B78002B0FD0F2
:100978003B681B78002B0BD07B6801337B603B689E
:1009880001333B607B681A783B681B789A42EBD04E
:100998003B681B78002B01D1002301E001235B4257
:1009A8001800BD4602B080BD90B58BB000AF78602E
:1009B80039600C23FB18164A13CA13C3116819604F
:1009C80012791A713B687B627B683B627B6A0133F0
:1009D8007B623B6A1B093B623B6A002BF6D17B6A50
:1009E80000221A707B680F2213407A6A013A7A62F1
:1009F8000C22BA18D25C7B6A1A707B681B097B6070
:100A08007B68002BEED13B681800BD460BB090BD4B
:100A1800B00F000880B586B000AF786039600C234D
:100A2800FB18174A1188198092789A703B687B6185
:100A38007B683B617B6901337B613B69002B00DA92
:100A480001335B103B613B69002BF3D17B690022CA
:100A58001A707B68012213407A69013A7A610C2284
:100A6800BA18D25C7B691A707B685B087B607B680C
:100A7800002BEED13B681800BD4606B080BDC046CD
:100A88000C10000890B59DB000AF7860AA4B1B68A9
:100A9800002B05D1A94B1800FFF762FE012346E1A0
:100AA800A74AA84B11001800FFF758FF031E04D1EE
:100AB800A54B1800FFF754FE31E1A44AA14B1100E1
:100AC8001800FFF74BFF031E39D18D237B650023E8
:100AD800FB662FE000233B65FB6E0C243A191100DE
:100AE8001800FFF761FF9A4B1800FFF739FE3B1912
:100AF8001800FFF735FE3B6D3A1911001800FFF793
:100B080053FF944B1800FFF72BFE3B191800FFF713
:100B180027FE3B6D3A1911001800FFF77BFF8E4B3B
:100B28001800FFF71DFE3B191800FFF719FEFB6EB2
:100B38000133FB66FA6E7B6D9A42CBDDEFE0874AA4
:100B4800804B11001800FFF709FF031E00D0C4E016
:100B58000123BB660BE0BB6E013B7A49BA6E8A186B
:100B680011784422BA18D154BB6E0133BB66754A5A
:100B7800BB6ED3181B78202BEDD1BB6E013B4420F4
:100B88003A180021D1543B1804211800FFF70CFE35
:100B98000300FB65BB6E5A1C6A4BD318704A1100E0
:100BA8001800FFF7DBFE031E2DD10023BB650C24C4
:100BB8003A19FB6D11001800FFF7F6FE644B180098
:100BC800FFF7CEFD3B191800FFF7CAFD3A19BB6DB8
:100BD80011001800FFF7E8FE5E4B1800FFF7C0FD94
:100BE8003B191800FFF7BCFD3A19BB6D110018003E
:100BF800FFF710FF584B1800FFF7B2FD3B1918001C
:100C0800FFF7AEFD8BE0BB6E9A1C4E4BD318554ACE
:100C180011001800FFF7A2FE031E2AD1BB6EDA1CD2
:100C2800484BD3181800FFF72DFE03007B664E4B88
:100C38001800FFF795FD30243A197B6E1100180053
:100C4800FFF7E8FE494B1800FFF78AFD3B1918002B
:100C5800FFF786FD3A19FB6D11001800FFF7A4FE97
:100C6800434B1800FFF77CFD3B191800FFF778FD90
:100C780026E0BB6E9A1C334BD3183E4A110018006D
:100C8800FFF76CFE031E0DD1BB6EDA1C2D4BD3187B
:100C98001800FFF71FFE03007B66374B1800FFF7AD
:100CA8005FFD0DE0BB6E5A1C264BD31805211800BA
:100CB800FFF77AFD03007B66304B1800FFF750FD05
:100CC8007B6EFF2B04D92E4B1800FFF749FD26E059
:100CD8002C4B1800FFF744FD21E02B4A194B11005B
:100CE8001800FFF73BFE031E15D101233B660BE0FE
:100CF8003B6E013B7A68D31812493A6E8A1812780B
:100D08001A703B6E01333B660E4A3B6ED3181B7854
:100D1800202BEDD103E01D4B1800FFF721FD064BFA
:100D280000221A60054B1800FFF71AFD002318006F
:100D3800BD461DB090BDC0464800002010100008F8
:100D48001C1000081C0000202410000830100008A7
:100D5800381000083C100008441000084C10000827
:100D68005010000854100008581000086C100008B3
:100D78007C100008801000088410000898100008F3
:100D8800AC100008CC100008DC100008E0100008C7
:100D980080B500AF084BDA6B074B10210A43DA63C2
:100DA800064B074A9A62054B0022DA62034B01227E
:100DB8005A61C046BD4680BD001002400010004088
:100DC8007FBB000080B582B000AF7860154B012270
:100DD8005A61144B7A68DA62124B01225A62114B3B
:100DE8001A68104B01210A431A600E4B1A690D4B01
:100DF80001218A431A61C0460A4B1B69012213402C
:100E0800FAD0084B1A69074B01218A431A61054B2E
:100E18001A68044B01218A431A60C046BD4602B0D5
:100E280080BDC0460010004080B500AF084BDA6BAB
:100E3800074B20210A43DA63064B2F229A62054B9F
:100E48000122DA62034B01225A61C046BD4680BDC9
:100E5800001002400014004080B582B000AF7860F6
:100E68007B68012B1EDCC046C046C046C046C04653
:100E7800C046C046C046C046C046C046C046C0463A
:100E8800C046C046C046C046C046C046C046C0462A
:100E9800C046C046C046C046C046C046C0467B683D
:100EA800012B21D0124B01225A61114B7A68DA6268
:100EB8000F4B02225A620E4B1A680D4B01210A434E
:100EC8001A600B4B1A690A4B01218A431A61C04602
:100ED800074B1B6901221340FAD0054B1A68044BD3
:100EE80001218A431A6000E0C046BD4602B080BDB9
:100EF8000014004080B500AFFFF74AFFFFF794FFEA
:100F0800C046BD4680BD000070B500260C4D0D4C96
:100F1800641BA410A64209D1002600F019F80A4D56
:100F28000A4C641BA410A64205D170BDB300EB584F
:100F380098470136EEE7B300EB5898470136F2E7D9
:100F48000411000804110008041100080811000821
:100F5800F8B5C046F8BC08BC9E467047F8B5C04610
:080F6800F8BC08BC9E4670476E
:100F70000D4D4355204F4E2E2053797374656D20CF
:100F800072656164792E0D0A41524D203E200000A9
:100F90000D0A54414220756E737570706F727465DE
:100FA00064210000303132333435363738390000AF
:100FB000303132333435363738394142434445468F
:100FC000000000007A797877767574737271706FAB
:100FD0006E6D6C6B6A6968676665646362613938F7
:100FE00037363534333231303132333435363738C1
:100FF000396162636465666768696A6B6C6D6E6FA0
:10100000707172737475767778797A003031000078
:101010000D0A41524D203E200000000068656C70B2
:10102000000000000D0A4E6F2068656C702E0000F5
:1010300052202D616C6C00000D0A52003A2030786D
:1010400000000000202D203062000000520000004F
:101050003F000000620000000D0A42696E202D2052
:10106000776F726B696E67202E2E2E0020446563A9
:101070006F6465643A203062000000002052000076
:10108000780000000D0A486578202D20776F726B7C
:10109000696E67202E2E2E000D0A446563202D20D8
:1010A000776F726B696E67202E2E2E000D0A4572C7
:1010B00072202D20496E707574206E756D62657298
:1010C00020746F6F206C6172676521000D0A536593
:1010D0006E64696E67202D204F4B000046000000B3
:1010E0000D0A556E7265636F676E697A6564206379
:1010F0006F6D6D616E642E205472792068656C701E
:041100002E000000BD
:04110400E1000008FE
:04110800B900000822
:040000050800058961
:00000001FF
