:020000040800F2
:1000000000400220290500082D04000833040008E0
:1000100000000000000000000000000000000000E0
:10002000000000000000000000000000790500084A
:1000300000000000000000007905000879050008B4
:10004000790500080000000079050008790500081E
:100050007905000879050008790500087905000888
:100060007905000879050008790500087905000878
:1000700079050008790500087905000800000000EE
:100080007905000879050008790500087905000858
:100090007905000879050008790500087905000848
:1000A0007905000879050008790500083904000879
:0800B00079050008790500083C
:1000B80010B5064C2378002B07D1054B002B02D036
:1000C800044800E000BF0123237010BD0000002099
:1000D80000000000B40A0008044B10B5002B03D040
:1000E8000349044800E000BF10BDC04600000000FE
:1000F80004000020B40A000880B584B000AF78601E
:1001080039603B68FF2213403B607B681B027B60C1
:100118007B682E4A13403A6813433B603B682C4A7D
:1001280013403B602B4B9A692A4B802189030A4371
:100138009A61284B9A69274B8021C9030A439A611F
:100148000023FB602BE0234B9A69224B8021090492
:100158000A439A613A6880231B04134006D01D4B5A
:100168009A691C4B40210A439A6106E0194B9A6927
:10017800184B8021C9030A439A613B685B003B60C6
:100188000A2000F017FC134B9A69124B80210A438E
:100198009A610A2000F00EFCFB680133FB60FB68E3
:1001A800172BD0DD0B4B9A690A4B802109040A43AF
:1001B8009A610A2000F0FEFB064B9A69054B202144
:1001C8000A439A61C046BD4604B080BD00FFFF00E7
:1001D800FFFF7FFF0004005080B500AF2E4B9A69E7
:1001E8002D4B20210A439A612B4B9A692A4B802177
:1001F800C9030A439A61284B9A69274B802109044D
:100208000A439A61244B9A69234B802149040A4383
:100218009A6105210220FFF76FFF0A2000F080FB9A
:1002280001210220FFF768FF3A212720FFF764FF2A
:10023800A0212220FFF760FF08211B20FFF75CFFA9
:100248001F211C20FFF758FF02211920FFF754FF38
:10025800FF211820FFF750FFFF211720FFF74CFF61
:10026800FF211620FFF748FF2F211520FFF744FF35
:10027800F2211420FFF740FF2F211320FFF73CFF46
:1002880030211220FFF738FF21211020FFF734FF1B
:10029800C046BD4680BDC0460004005080B582B04F
:1002A80000AF1D4B00221A601C4B00221A6000F0A0
:1002B8003BF800F0CDFB00F0BBFA642000F030FB07
:1002C800FFF78AFF0A2000F02BFB00F0C9F9144B56
:1002D800180000F0E7FA0A2000F022FB00F0DCF931
:1002E800104B9A690F4B802189020A439A610D4B82
:1002F8009A690C4B802149020A439A61A023DB05C5
:100308009A69A023DB05802109040A439A61FB1D31
:1003180030221A70FEE7C046480000204400002042
:10032800CC0A00080004005080B500AF344B1A68AE
:10033800334B34490A401A60C046314B1A6880234F
:100348009B041340F9D12E4B2F4ADA602C4B1A68C4
:100358002B4B802149040A431A60C046284B1A686F
:1003680080239B041340F9D0254B1A6A244B202183
:100378000A431A62224B9A68214B02210A439A6067
:10038800C0461F4B9B6810221340FAD01C4B5A6B77
:100398001B4B03210A435A631C4B012252429A60A9
:1003A800A023DB051A4A9A60A023DB051A68A0235C
:1003B800DB05C0218A431A60A023DB051A68A02345
:1003C800DB0514490A401A60104B1A680F4B124992
:1003D8000A401A600D4B1A680C4B10490A401A6003
:1003E800A023DB051A68A023DB050D490A401A6023
:1003F800A023DB05882252005A62C046BD4680BD54
:1004080000100240FFFFFFFE120C003200040050F3
:10041800FC0F000CFFD5FFFF7F57FDFFFFFCFFFF20
:10042800FFFFEBFF80B500AFFEE780B500AFFEE74A
:1004380080B582B000AF354BDB692022134055D020
:10044800324B5A6AFB1D1A70FB1D1B78092B06D10B
:100458002F4B180000F026FAFB1D0D221A70FB1D09
:100468001B78082B03D0FB1D1B787F2B0DD1294B44
:100478001B68002B09DD274B1B685A1E254B1A6089
:10048800224BFA1D12789A623DE0FB1D1B78082B5F
:1004980003D0FB1D1B787F2B03D11E4B1B68002B41
:1004A80030DDFB1D1B781F2B03D8FB1D1B780D2B84
:1004B80029D1164BFA1D12789A62164B1B68164AF8
:1004C800F91D0978D154FB1D1B780D2B08D1114B50
:1004D8001B68114A0021D154104B01221A6012E006
:1004E8000C4B1B685A1C0B4B1A600CE0074BDB6962
:1004F8000822134007D0054B1A6A044B08210A4307
:100508001A6200E0C046BD4602B080BD0038014016
:10051800EC0A0008480000201C00002044000020CD
:100528000D48854600F0F6F80C480D490D4A0023A1
:1005380002E0D458C4500433C4188C42F9D30A4A90
:100548000A4C002301E013600432A242FBD300F0FE
:1005580089FAFFF7A3FEFEE7004002200000002012
:1005680000000020080B0008000000204C000020BC
:10057800FEE780B584B000AF02003960FB1D1A7039
:100588000023FB603B685B015B093B60FB1DFA1DB8
:1005980012780F210A401A70FB1D1B78FB60FB685C
:1005A800DB06FB60FB68DB0EDB06FB60FA683B687A
:1005B8001343FB60A023DB059A69A023DB05802198
:1005C800C9030A439A610023BB6031E0A023DB051D
:1005D8009A69A023DB05802189030A439A61FB6895
:1005E800002B08DAA023DB059A69A023DB0510217C
:1005F8000A439A6108E0A023DB059A69A023DB057A
:10060800802149030A439A61052000F0D3F9A02309
:10061800DB059A69A023DB0520210A439A6105209E
:1006280000F0C8F9FB685B00FB60BB680133BB6086
:10063800BB681F2BCADDA023DB059A69A023DB0555
:10064800802189030A439A61A023DB059A69A023C4
:10065800DB0540210A439A61C046BD4604B080BD0F
:1006680080B500AF00210920FFF783FF0321082090
:10067800FFF77FFF064B19000720FFF77AFF054BAE
:1006880019000020FFF775FFC046BD4680BDC04673
:10069800020000013D00600280B500AF0021092082
:1006A800FFF767FF02210820FFF763FF144B1900CB
:1006B8000720FFF75EFF80235B0119000620FFF784
:1006C80058FF10210520FFF754FF0E4B1900042096
:1006D800FFF74FFF0C4B19000320FFF74AFF0B4BA6
:1006E80019000220FFF745FF00210120FFF741FF15
:1006F800074B19000020FFF73CFFC046BD4680BDF0
:1007080003000001A653810102600000FFFF3F00C3
:100718003D00600280B500AFC046BD4680BD000008
:1007280080B582B000AF0200FB1D1A70FB1D1B785C
:100738007F2B09D8FB1D1B781A001F231A40044B76
:10074800012191400A001A60C046BD4602B080BD32
:1007580000E100E090B583B000AF02003960FB1DF6
:100768001A70FB1D1B787F2B28D82F4AFB1D1B787E
:100778005BB29B08C0339B009B58FA1D127811008E
:1007880003220A40D200FF2191400A00D2431A40B6
:1007980011003B689B01FF221A40FB1D1B781800C3
:1007A80003230340DB009A401F48FB1D1B785BB204
:1007B8009B080A43C0339B001A5031E01B4AFB1DBB
:1007C8001B7819000F230B40083B9B0806339B003E
:1007D800D31804331B68FA1D1278110003220A404B
:1007E800D200FF2191400A00D2431A4011003B6811
:1007F8009B01FF221A40FB1D1B78180003230340AE
:10080800DB009A400948FB1D1B781C000F2323407E
:10081800083B9B080A4306339B00C31804331A603D
:10082800C046BD4603B090BD00E100E000ED00E029
:1008380080B500AF174B1A6C164B8021C9010A43CB
:100848001A64154B154ADA60134B1A68124B0421C7
:100858000A431A60104B1A680F4B08210A431A60A2
:100868000D4B0F4A5A610C4B1A680B4B01210A4376
:100878001A60094B1A68084B20210A431A601B208A
:10088800FFF74EFF02211B20FFF764FFC046BD465D
:1008980080BDC046001002400038014088130000A7
:1008A800FFFFFF0080B584B000AF78600023FB60D5
:1008B8000EE0FB687A68D3181A780B4B9A62FB68CB
:1008C8000133FB60C046084BDB6940221340FAD075
:1008D800FB687A68D3181B78002BEAD1C046C0465B
:1008E800BD4604B080BDC0460038014080B500AFA9
:1008F800084BDA6B074B10210A43DA63064B074AA9
:100908009A62054B0022DA62034B01225A61C04603
:10091800BD4680BD00100240001000407FBB0000B3
:1009280080B582B000AF7860154B01225A61144B34
:100938007A68DA62124B01225A62114B1A68104B1C
:1009480001210A431A600E4B1A690D4B01218A4393
:100958001A61C0460A4B1B6901221340FAD0084BA2
:100968001A69074B01218A431A61054B1A68044B1F
:1009780001218A431A60C046BD4602B080BDC04608
:100988000010004080B500AF084BDA6B074B202100
:100998000A43DA63064B2F229A62054B0122DA6278
:1009A800034B01225A61C046BD4680BD001002407B
:1009B8000014004080B582B000AF78607B68012BDE
:1009C8001EDCC046C046C046C046C046C046C046FB
:1009D800C046C046C046C046C046C046C046C046DF
:1009E800C046C046C046C046C046C046C046C046CF
:1009F800C046C046C046C046C0467B68012B21D0D1
:100A0800124B01225A61114B7A68DA620F4B0222AB
:100A18005A620E4B1A680D4B01210A431A600B4BA0
:100A28001A690A4B01218A431A61C046074B1B69A0
:100A380001221340FAD0054B1A68044B01218A435E
:100A48001A6000E0C046BD4602B080BD00140040F8
:100A580080B500AFFFF74AFFFFF794FFC046BD46D9
:100A680080BD000070B500260C4D0D4C641BA41011
:100A7800A64209D1002600F019F80A4D0A4C641B59
:100A8800A410A64205D170BDB300EB5898470136B3
:100A9800EEE7B300EB5898470136F2E7000B000881
:100AA800000B0008000B0008040B0008F8B5C0464E
:100AB800F8BC08BC9E467047F8B5C046F8BC08BCF0
:040AC8009E4670478F
:100ACC000D4D4355204F4E2E2053797374656D2078
:100ADC0072656164792E0D0A41524D203E20000052
:100AEC000D0A54414220756E737570706F72746587
:040AFC006421000071
:040B0000E100000808
:040B0400B90000082C
:0400000508000529C1
:00000001FF
