:020000040800F2
:1000000000400220790300087D02000883020008F6
:1000100000000000000000000000000000000000E0
:10002000000000000000000000000000C9030008FC
:100030000000000000000000C9030008C903000818
:10004000C903000800000000C9030008C903000834
:10005000C9030008C9030008C9030008C903000850
:10006000C9030008C9030008C9030008C903000840
:10007000C9030008C9030008C90300080000000004
:10008000C9030008C9030008C9030008C903000820
:10009000C9030008C9030008C9030008C903000810
:1000A000C9030008C9030008C90300088902000841
:0800B000C9030008C9030008A0
:1000B80010B5064C2378002B07D1054B002B02D036
:1000C800044800E000BF0123237010BD0000002099
:1000D80000000000B40F0008044B10B5002B03D03B
:1000E8000349044800E000BF10BDC04600000000FE
:1000F80004000020B40F000880B500AF1E4B00229A
:100108001A601E4B00221A6000F040F800F020FF31
:1001180000F02AFB642000F083FE00F02FFA184B51
:10012800180000F05BFB0A2000F07AFE00F042FAAB
:10013800A023DB059A69A023DB05802109060A4371
:100148009A61104B9A690F4B802109030A439A61FF
:100158000C4B9A690B4B10210A439A61074B1B6899
:10016800002B06D0084B180000F0CAFC034B0022F5
:100178001A6000F059FAF1E7480000204400002016
:10018800CC0F0008000400501C00002080B500AF10
:10019800304B1A682F4B30490A401A60C0462D4B25
:1001A8001A6880239B041340F9D12A4B2B4ADA6042
:1001B800284B1A68274B802149040A431A60C04615
:1001C800244B1A6880239B041340F9D0214B1A6AE8
:1001D800204B20210A431A621E4B9A681D4B0221AC
:1001E8000A439A60C0461B4B9B6810221340FAD002
:1001F800184B5A6B174B03210A435A63184B0122B9
:1002080052429A60A023DB05164A9A60144B1A687A
:10021800134B15490A401A60114B1A68104B1349C1
:100228000A401A60A023DB051A68A023DB055200E8
:1002380052081A60A023DB051A68A023DB050C49C5
:100248000A401A60A023DB05882252005A62C04681
:10025800BD4680BD00100240FFFFFFFE120C0032B9
:100268000004005000003C0C7F55FFFFFFFFFCFF1F
:10027800FFFFEBFF80B500AFFEE780B500AFFEE7FC
:1002880080B582B000AF354BDB692022134055D0D2
:10029800324B5A6AFB1D1A70FB1D1B78092B06D1BD
:1002A8002F4B180000F09AFAFB1D0D221A70FB1D47
:1002B8001B78082B03D0FB1D1B787F2B0DD1294BF6
:1002C8001B68002B09DD274B1B685A1E254B1A603B
:1002D800224BFA1D12789A623DE0FB1D1B78082B11
:1002E80003D0FB1D1B787F2B03D11E4B1B68002BF3
:1002F80030DDFB1D1B781F2B03D8FB1D1B780D2B36
:1003080029D1164BFA1D12789A62164B1B68164AA9
:10031800F91D0978D154FB1D1B780D2B08D1114B01
:100328001B68114A0021D154104B01221A6012E0B7
:100338000C4B1B685A1C0B4B1A600CE0074BDB6913
:100348000822134007D0054B1A6A044B08210A43B8
:100358001A6200E0C046BD4602B080BD00380140C8
:10036800EC0F0008480000201C000020440000207A
:100378000D48854600F06AF90C480D490D4A0023DE
:1003880002E0D458C4500433C4188C42F9D30A4A42
:100398000A4C002301E013600432A242FBD300F0B0
:1003A800E1FDFFF7A9FEFEE7004002200000002063
:1003B8000000002064110008000000204C0000200C
:1003C800FEE7000080B584B000AF02003960FB1D75
:1003D8001A700023FB603B685B015B093B60FB1DF7
:1003E800FA1D12780F210A401A70FB1D1B78FB605A
:1003F800FB68DB06FB60FB68DB0EDB06FB60FA686C
:100408003B681343FB60244B9A69234B8021890383
:100418000A439A610023BB6029E01F4B9A691E4B6F
:100428008021C9030A439A61FB68002B06DA1A4B3C
:100438009A69194B80210A439A6106E0164B9A691A
:10044800154B802109040A439A61052000F032FD0A
:10045800114B9A69104B40210A439A61052000F01C
:1004680029FDFB685B00FB60BB680133BB60BB68B0
:100478001F2BD2DD084B9A69074B8021C9030A4319
:100488009A61054B9A69044B20210A439A61C04638
:10049800BD4604B080BDC0460004005080B584B09D
:1004A80000AF78600023FB607B68DB067B607A68BE
:1004B800F023DB0513407B607B6880221206134320
:1004C8007B602D4B9A692C4B802189030A439A61E2
:1004D8000023BB6036E0284B9A69274B8021C9036B
:1004E8000A439A617B68002B06DA234B9A69224BF0
:1004F80080210A439A6106E01F4B9A691E4B8021AE
:1005080009040A439A61052000F0D4FC1A4B9A6941
:10051800194B40210A439A61052000F0CBFCFB6887
:100528005B00FB60144B1A6980235B00134003D007
:10053800FB6801221343FB607B685B007B60BB6840
:100548000133BB60BB681F2BC5DD0B4B9A690A4B97
:100558008021C9030A439A61074B9A69064B2021F7
:100568000A439A61FB685B015B09FB60FB68180042
:10057800BD4604B080BDC0460004005080B500AF41
:1005880000210920FFF71EFF03210820FFF71AFFAB
:10059800064B19000720FFF715FF054B190000202F
:1005A800FFF710FFC046BD4680BDC04603000001EE
:1005B800FD00600280B500AF00210920FFF702FFAF
:1005C80002210820FFF7FEFE80235B0419000720A4
:1005D800FFF7F8FE80235B0119000620FFF7F2FE03
:1005E80010210520FFF7EEFE0C4B19000420FFF741
:1005F800E9FE01210320FFF7E5FE094B190002205F
:10060800FFF7E0FE00210120FFF7DCFE054B190093
:100618000020FFF7D7FEC046BD4680BD25538101A7
:10062800FFFF3F007D00600280B500AF8023DB0440
:1006380019000120FFF7C6FE034B19000020FFF741
:10064800C1FEC046BD4680BD7D00600680B500AFD6
:10065800C046BD4680BD000080B582B000AF020034
:10066800FB1D1A70FB1D1B787F2B09D8FB1D1B78FF
:100678001A001F231A40044B012191400A001A60F6
:10068800C046BD4602B080BD00E100E090B583B031
:1006980000AF02003960FB1D1A70FB1D1B787F2B11
:1006A80028D82F4AFB1D1B785BB29B08C0339B00E0
:1006B8009B58FA1D1278110003220A40D200FF212C
:1006C80091400A00D2431A4011003B689B01FF2267
:1006D8001A40FB1D1B78180003230340DB009A40D7
:1006E8001F48FB1D1B785BB29B080A43C0339B0065
:1006F8001A5031E01B4AFB1D1B7819000F230B40D1
:10070800083B9B0806339B00D31804331B68FA1D6B
:100718001278110003220A40D200FF2191400A00FA
:10072800D2431A4011003B689B01FF221A40FB1D6F
:100738001B78180003230340DB009A400948FB1D7F
:100748001B781C000F232340083B9B080A430633F1
:100758009B00C31804331A60C046BD4603B090BD61
:1007680000E100E000ED00E080B500AF174B1A6C27
:10077800164B8021C9010A431A64154B154ADA60E1
:10078800134B1A68124B04210A431A60104B1A685B
:100798000F4B08210A431A600D4B0F4A5A610C4B44
:1007A8001A680B4B01210A431A60094B1A68084B57
:1007B80020210A431A601B20FFF74EFF02211B204D
:1007C800FFF764FFC046BD4680BDC046001002402A
:1007D8000038014088130000FFFFFF0080B584B097
:1007E80000AF78600023FB600EE0FB687A68D318DE
:1007F8001A780B4B9A62FB680133FB60C046084BC2
:10080800DB6940221340FAD0FB687A68D3181B785A
:10081800002BEAD1C046C046BD4604B080BDC046E4
:100828000038014080B58AB000AF78603960002395
:100838007B620C23FB18314A03CA03C31188198051
:1008480092789A7000233B620123FB617B681B78D6
:100858002D2B08D101235B42FB613B68013B3B60C8
:1008680001233B623BE07B681B782B2B37D10123AC
:10087800FB613B68013B3B6001233B622FE00023A7
:10088800BB610DE00C23FA18BB69D3181A783B6AD0
:100898007968CB181B789A420AD0BB690133BB61CF
:1008A8000C23FA18BB69D3181B78002BEAD100E097
:1008B800C0467A6A13009B009B185B007B62BB6989
:1008C8007A6AD3187B623B6A01333B623B68013B1F
:1008D8003B603B6A7A68D3181B78002B03D03B68CF
:1008E800002BCCD100E0C046FA697B6A53437B6297
:1008F8007B6A1800BD460AB080BDC04600100008DB
:1009080080B586B000AF786000237B6100233B612F
:1009180013E00023FB603B697A68D3181B78312BFE
:1009280001D10123FB607B695B007B61FB687A690D
:10093800D3187B613B6901333B613B697A68D31803
:100948001B78002BE5D17B691800BD4606B080BD39
:1009580090B58BB000AF786000237B620823FB184A
:100968001C4A13CA13C31168196012791A7100233B
:100978003B6223E00023FB610DE00823FA18FB69C2
:10098800D3181A783B6A7968CB181B789A420AD030
:10099800FB690133FB610823FA18FB69D3181B783C
:1009A800002BEAD100E0C0467B6A1B017B62FB6931
:1009B8007A6AD3187B623B6A01333B623B6A7A6886
:1009C800D3181B78002BD5D17B6A1800BD460BB015
:1009D80090BDC0460C10000880B582B000AF7860AA
:1009E80039600DE07B681B78002B0FD03B681B78C3
:1009F800002B0BD07B6801337B603B6801333B6085
:100A08007B681A783B681B789A42EBD03B681B7866
:100A1800002B01D1002301E001235B421800BD46F1
:100A280002B080BD90B58BB000AF786039600C2300
:100A3800FB18164A13CA13C31168196012791A7180
:100A48003B687B627B683B627B6A01337B623B6A03
:100A58001B093B623B6A002BF6D17B6A00221A70A5
:100A68007B680F2213407A6A013A7A620C22BA181C
:100A7800D25C7B6A1A707B681B097B607B68002BE1
:100A8800EED13B681800BD460BB090BD0C100008B5
:100A980080B586B000AF786039600C23FB18174A20
:100AA8001188198092789A703B687B617B683B61FA
:100AB8007B6901337B613B69002B00DA01335B10F2
:100AC8003B613B69002BF3D17B6900221A707B687C
:100AD800012213407A69013A7A610C22BA18D25C71
:100AE8007B691A707B685B087B607B68002BEED1A2
:100AF8003B681800BD4606B080BDC04668100008B7
:100B080090B59BB000AF7860A34B1B68002B05D154
:100B1800A24B1800FFF762FE012339E1A04AA14B5E
:100B280011001800FFF758FF031E04D19E4B180050
:100B3800FFF754FE24E19D4A9A4B11001800FFF775
:100B48004BFF031E3DD10B233B6500237B6633E03F
:100B58007B6E1800FFF7A2FC0300FB647B6E082481
:100B68003A1911001800FFF75DFF914B1800FFF7C5
:100B780035FE3B191800FFF731FEFB6C3A191100DE
:100B88001800FFF74FFF8B4B1800FFF727FE3B19A4
:100B98001800FFF723FEFB6C3A1911001800FFF745
:100BA80077FF854B1800FFF719FE3B191800FFF770
:100BB80015FE7B6E01337B667A6E3B6D9A42C7DD0C
:100BC800DEE07E4A774B11001800FFF705FF031E91
:100BD80000D0D1E001233B660BE03B6E013B71493D
:100BE8003A6E8A1811784022BA18D1543B6E0133F4
:100BF8003B666C4A3B6ED3181B78202BEDD13B6EBD
:100C0800013B40203A180021D1543B180421180018
:100C1800FFF708FE0300BB653B6E5A1C614BD318F7
:100C2800674A11001800FFF7D7FE031E31D1BB6DCC
:100C38001800FFF733FC03007B6508243A19BB6DE5
:100C480011001800FFF7EEFE594B1800FFF7C6FD1C
:100C58003B191800FFF7C2FD3A197B6D1100180007
:100C6800FFF7E0FE534B1800FFF7B8FD3B191800DB
:100C7800FFF7B4FD3A197B6D11001800FFF708FF64
:100C88004D4B1800FFF7AAFD3B191800FFF7A6FD0A
:100C980076E03B6E9A1C434BD3184A4A1100180061
:100CA800FFF79AFE031E2AD13B6EDA1C3D4BD31880
:100CB8001800FFF725FE0300FB65434B1800FFF7FC
:100CC8008DFD2C243A19FB6D11001800FFF7E0FE8A
:100CD8003E4B1800FFF782FD3B191800FFF77EFD19
:100CE8003A19BB6D11001800FFF79CFE384B18002D
:100CF800FFF774FD3B191800FFF770FD26E03B6E07
:100D08009A1C284BD318334A11001800FFF764FEC9
:100D1800031E0DD13B6EDA1C224BD3181800FFF7C7
:100D280017FE0300FB652C4B1800FFF757FD0DE07D
:100D38003B6E5A1C1B4BD31805211800FFF772FD98
:100D48000300FB65254B1800FFF748FDFA6D80236B
:100D58001B059A4204D3224B1800FFF73FFD0FE012
:100D6800BB6DDBB2FA6D11001800FFF72BFB1D4BB2
:100D78001800FFF733FD03E01B4B1800FFF72EFDAB
:100D8800054B00221A60054B1800FFF727FD0023CA
:100D98001800BD461BB090BD480000206C1000082C
:100DA800781000081C000020801000088C10000833
:100DB8009410000898100008A0100008A810000857
:100DC800AC100008B0100008B4100008C8100008E3
:100DD800D8100008DC100008E0100008F410000823
:100DE80008110008281100083811000880B500AF64
:100DF800084BDA6B074B10210A43DA63064B074AA4
:100E08009A62054B0022DA62034B01225A61C046FE
:100E1800BD4680BD00100240001000407FBB0000AE
:100E280080B582B000AF7860154B01225A61144B2F
:100E38007A68DA62124B01225A62114B1A68104B17
:100E480001210A431A600E4B1A690D4B01218A438E
:100E58001A61C0460A4B1B6901221340FAD0084B9D
:100E68001A69074B01218A431A61054B1A68044B1A
:100E780001218A431A60C046BD4602B080BDC04603
:100E88000010004080B500AF084BDA6B074B2021FB
:100E98000A43DA63064B2F229A62054B0122DA6273
:100EA800034B01225A61C046BD4680BD0010024076
:100EB8000014004080B582B000AF78607B68012BD9
:100EC8001EDCC046C046C046C046C046C046C046F6
:100ED800C046C046C046C046C046C046C046C046DA
:100EE800C046C046C046C046C046C046C046C046CA
:100EF800C046C046C046C046C0467B68012B21D0CC
:100F0800124B01225A61114B7A68DA620F4B0222A6
:100F18005A620E4B1A680D4B01210A431A600B4B9B
:100F28001A690A4B01218A431A61C046074B1B699B
:100F380001221340FAD0054B1A68044B01218A4359
:100F48001A6000E0C046BD4602B080BD00140040F3
:100F580080B500AFFFF74AFFFFF794FFC046BD46D4
:100F680080BD000070B500260C4D0D4C641BA4100C
:100F7800A64209D1002600F019F80A4D0A4C641B54
:100F8800A410A64205D170BDB300EB5898470136AE
:100F9800EEE7B300EB5898470136F2E75C1100081A
:100FA8005C1100085C11000860110008F8B5C04623
:100FB800F8BC08BC9E467047F8B5C046F8BC08BCEB
:040FC8009E4670478A
:100FCC000D4D4355204F4E2E2053797374656D2073
:100FDC0072656164792E0D0A41524D203E2000004D
:100FEC000D0A54414220756E737570706F72746582
:100FFC006421000030313233343536373839000053
:10100C003031323334353637383941424344454632
:10101C00000000007A797877767574737271706F4E
:10102C006E6D6C6B6A69686766656463626139389A
:10103C003736353433323130313233343536373864
:10104C00396162636465666768696A6B6C6D6E6F43
:10105C00707172737475767778797A00303100001C
:10106C000D0A41524D203E200000000068656C7056
:10107C00000000000D0A4E6F2068656C702E000099
:10108C0052202D616C6C00000D0A52003A20307811
:10109C0000000000202D20306200000052000000F3
:1010AC003F000000620000000D0A42696E202D20F6
:1010BC00776F726B696E67202E2E2E00204465634D
:1010CC006F6465643A20306200000000205200001A
:1010DC00780000000D0A486578202D20776F726B20
:1010EC00696E67202E2E2E000D0A446563202D207C
:1010FC00776F726B696E67202E2E2E000D0A45726B
:10110C0072202D20496E707574206E756D6265723B
:10111C0020746F6F206C6172676521000D0A536536
:10112C006E64696E67202D204F4B00000D0A556EC2
:10113C007265636F676E697A656420636F6D6D614C
:10114C006E642E205472792068656C702E0000003D
:04115C00E1000008A6
:04116000B9000008CA
:040000050800037973
:00000001FF
