:020000040800F2
:100000000080002019020008650300086103000851
:10001000650200085D0300085903000800000000A5
:100020000000000000000000000000006502000861
:100030006502000800000000650200086502000873
:1000400065020008650200086502000865020008F4
:1000500065020008650200086502000865020008E4
:1000600065020008650200086502000865020008D4
:1000700065020008650200086502000865020008C4
:100080006502000800000000650200086502000823
:1000900065020008650200086502000865020008A4
:1000A0006502000865020008650200086502000894
:1000B0006502000865020008650200086502000884
:1000C0006502000865020008650200086502000874
:1000D00065020008C5020008650200086502000804
:1000E0006502000865020008650200086502000854
:1000F00065020008650200086502000800000000B3
:100100000000000065020008000000006502000811
:100110006502000800000000650200086502000892
:100120006502000865020008650200086502000813
:1001300065020008000000000000000065020008E1
:1001400065020008650200080000000000000000D1
:10015000000000000000000000000000000000009F
:100160000000000000000000000000006502000820
:100170006502000800000000000000000000000010
:100180000000000065020008000000000000000000
:1001900000000000650200080000000000000000F0
:1001A0000000000000000000650200086502000871
:1001B00065020008650200086502000800000000F2
:1001C00000000000650200080000000000000000C0
:0801D000650200086502000849
:1001D80010B5054C237833B9044B13B10448AFF379
:1001E80000800123237010BD0000002000000000E3
:1001F800C405000808B5034B1BB103490348AFF316
:10020800008008BD0000000004000020C4050008AC
:100218000C4885460C480D490D4A002302E0D45885
:10022800C4500433C4188C42F9D30A4A0A4C002338
:1002380001E013600432A242FBD300F03DF800F065
:100248008FF8FEE70080002000000020000000205A
:10025800E40600080000002038000020FEE7000047
:100268000D4B01224FF47A715A61D9625A621A68A9
:1002780042F001021A601A6922F001021A611A6931
:10028800D207FCD51A6922F001021A611A6822F015
:1002980001021A60704700BF00100040037843B1A4
:1002A800044A9362D3695B06FCD510F8013F002B22
:1002B800F7D1704700380140704700BF1F4BDA691B
:1002C800910611D510B55A6AD2B2092A1AD0082A4D
:1002D8002FD07F2A11D11A490B68002B03DD17484C
:1002E800013B0B60826210BDDA69120704D51A6AF5
:1002F80042F008021A62704770471F2A11D80D2A67
:1003080003D010BD0F48FFF7C9FF0C490C4A0E482F
:100318000E4B0D248C6211680024012244541A608B
:1003280010BD07499A620B68074C581CE2540860D4
:1003380010BD03490B68002BD1DC10BD003801400B
:100348001C000020DC0500082000002034000020EC
:10035800FEE700BFFEE700BFFEE700BFFEE700BF05
:1003680080B5824A8249936D4FF4007043F0805300
:1003780093650A46086053695905FCD47D487B4B50
:10038800016841F003010160D2F8801041F48071E6
:10039800C2F880101A6842F480321A601A68920310
:1003A800FCD51A68714922F080721A600B689F01A7
:1003B800FCD4714BCB600B686C4A43F080730B60C4
:1003C80013689E01FCD5116A684B41F02001116247
:1003D800916841F0030191609A6812F00C0FFBD00C
:1003E800D86C6649664F674C4FF0904240F0070062
:1003F8006FF04055D8644FF0FF36956000258E6049
:10040800BD60D06820F04040D0606FF05440CD60AF
:1004180010600E6016685C4826F040461660166844
:1004280046F0804616600E68584A26F4A0460E60CC
:100438004FF0EE460E62996D41F0100199654EF647
:1004480060260121A662E56261619C6D782544F011
:1004580020049C658562C1624161196E052441F4DE
:10046800804140F2E2401966D462D060136843F0DC
:100478000403136013686FF07F4143F008031360AF
:100488005161136843F001031360136843F02003BC
:1004980013603F4B202159603E4883F82513FFF72E
:1004A800FDFE3D4B1B68EBB13C4B384A1B6843B320
:1004B8003B4B1A78682A3DD13A49652201E011F888
:1004C800012F13F8010F904226D1002AF7D136499F
:1004D8002E4A41239362D3695D06FCD511F8013F8A
:1004E800002BF7D14FF09040836943F400438361B8
:1004F800FFF7B6FE836943F000438361FFF7B0FE60
:10050800F2E72A4941239362D3695B06FCD511F8C7
:10051800013F002BF7D1E5E7002AD8D024491B4A30
:1005280055239362D3695806FCD511F8013F002B77
:10053800F7D1D7E7412AF1D11E49742201E011F819
:10054800012F13F8010F90420DD1002AF7D11A4953
:100558000E4A4F239362D3695C06FCD511F8013F1C
:10056800002BF7D1BEE7002AF1D0D7E700100240F0
:1005780000700040002002400318013100040048C8
:1005880000080048001000400014004000380140F6
:1005980000E100E0F0050008340000201C00002005
:1005A800200000200906000818060008D4060008E4
:1005B800B006000811060008A8060008F8B500BF34
:1005C800F8BC08BC9E467047F8B500BFF8BC08BC2C
:0405D8009E46704784
:1005DC000D0A54414220756E737570706F7274659C
:1005EC00642100004D4355206F6E202D20537973EC
:1005FC0074656D204F4B0A0D0000000068656C702F
:10060C000000000041747420000000004120787844
:10061C0078202D20616D706C6974756465205B2B7E
:10062C002F2D64426D5D0D0A4620787878787878A5
:10063C0078202D206672657175656E6379205B6B11
:10064C00487A5D0D0A4D207878787878202D206DC9
:10065C006F64756C6174696F6E205B487A5D0D0A0E
:10066C005020313233343536373839202D207361F0
:10067C0076652073657474696E67730D0A52202D4C
:10068C002072657365742C20532078202D206D65A5
:10069C006D6F72790D0A0D0A000000004F4B0D0AA8
:1006AC0000000000556E7265636F676E697A656451
:1006BC0020636F6D6D616E642E20547279206865B5
:1006CC006C702E0D0A00000041524D3E20000000BF
:0406DC00FD01000814
:0406E000D901000834
:0400000508000219D4
:00000001FF
