:020000040800F2
:100000000010002069050008B305000885040008F9
:1000100000000000000000000000000000000000E0
:10002000000000000000000000000000B70500080C
:100030000000000000000000B9050008BB05000832
:10004000BF050008C1050008C3050008C505000874
:10005000C7050008C9050008CB050008CD05000844
:10006000CF050008D1050008D3050008D505000814
:10007000D7050008D9050008DB050008DD050008E4
:10008000DF050008E1050008E3050008E5050008B4
:10009000E7050008E9050008EB050008ED05000884
:1000A000EF050008F1050008F30500088D040008BD
:1000B000F7050008F9050008FB050008FD05000824
:1000C000FF05000810B5064C2378002B07D1054B1F
:1000D000002B02D0044800E000BF0123237010BDB4
:1000E0006800002000000000640D0008044B10B5FB
:1000F000002B03D00349044800E000BF10BDC046F8
:10010000000000006C000020640D000840229202F4
:100110009A1A92467047C046174B002B00D1134BDA
:100120009D46FFF7F3FF00218B460F461348144A04
:10013000121A00F085FD0E4B002B00D098470D4B96
:10014000002B00D098470020002104000D000D482E
:10015000002802D00C4800E000BF00F04DFD200058
:10016000290000F0E5F800F031FDC046000008006D
:1001700000000000000000000010002068000020C7
:10018000A0000020000000000000000080B500AFCB
:10019000084BDA69074B08490A43DA61074B084AFA
:1001A0009A62064B0022DA62044B01225A61C04671
:1001B000BD4680BD0010024000010010002000403C
:1001C0007FBB000080B582B000AF7860154B012284
:1001D0005A61144B7A68DA62124B01225A62114B4F
:1001E0001A68104B01210A431A600E4B1A690D4B15
:1001F00001218A431A61C0460A4B1B690122134040
:10020000FAD0084B1A69074B01218A431A61054B42
:100210001A68044B01218A431A60C046BD4602B0E9
:1002200080BDC0460020004080B500AF094B9A69F0
:10023000084B802189020A439A61074B2F229A6258
:10024000054B0122DA62044B01225A61C046BD46C9
:1002500080BDC046001002400044014080B582B01D
:1002600000AF78607B68012B3ADCC046C046C046D0
:10027000C046C046C046C046C046C046C046C0464E
:10028000C046C046C046C046C046C046C046C0463E
:10029000C046C046C046C046C046C046C046C0462E
:1002A000C046C046C046C046C046C046C046C0461E
:1002B000C046C046C046C046C046C046C046C0460E
:1002C000C046C046C046C046C046C046C046C046FE
:1002D000C046C046C046C046C0467B68012B21D000
:1002E000124B01225A61114B7A68DA620F4B0222DB
:1002F0005A620E4B1A680D4B01210A431A600B4BD0
:100300001A690A4B01218A431A61C046074B1B69CF
:1003100001221340FAD0054B1A68044B01218A438D
:100320001A6000E0C046BD4602B080BD00440140F6
:1003300080B500AF00F024F8FFF728FFFFF774FF47
:1003400000F072FA00F01EFC0A4B180000F0ACFA44
:10035000094B1B68002B06D0084B180000F054FB1B
:10036000054B00221A60282000F0A8FB0A20FFF7A6
:1003700029FFEDE76C0C0008880000208C000020AD
:1003800080B500AF3A4B1A68394B802149020A43C5
:100390001A60C046364B1A6880239B021340F9D07E
:1003A000334B5A68324B03218A435A60C046304B64
:1003B0005B680C221340FAD12D4B1A682C4B2D4947
:1003C0000A401A60C0462A4B1A6880239B041340D7
:1003D000F9D1274B5B68284A1A40254BA021890395
:1003E0000A435A60224B0522DA62214B5A68204B9D
:1003F000802149020A435A601D4B1A681C4B802118
:1004000049040A431A60C046194B1A6880239B04AA
:100410001340F9D0164B5A68154B02210A435A6013
:10042000C046134B5B680C221340082BF9D1104BCC
:100430005A690F4BC021C9020A435A619023DB0558
:100440009A689023DB050D490A439A600C4B9B6820
:100450000B4B012252429A609023DB051A689023CD
:10046000DB0515210A431A60C046BD4680BDC04663
:1004700000100240FFFFFFFEFFFFC3FFFFFFFFC3AF
:100480000004004880B500AFFEE7000080B582B0F0
:1004900000AF314BDB69202213404DD02E4B9B8C9B
:1004A0009AB2FB1D1A70FB1D1B78082B03D0FB1D95
:1004B0001B787F2B0ED1294B1B68002B0ADD274BA5
:1004C0001B685A1E254B1A60234AFB1D1B789BB2E2
:1004D00013853EE0FB1D1B78082B03D0FB1D1B780A
:1004E0007F2B03D11D4B1B68002B31DDFB1D1B78BF
:1004F0001F2B03D8FB1D1B780D2B2AD1164AFB1D81
:100500001B789BB21385154B1B68154AF91D09789A
:10051000D154FB1D1B780D2B08D1104B1B68104AC2
:100520000021D1540F4B01221A6012E00B4B1B68C3
:100530005A1C0A4B1A600CE0074BDB690822134077
:1005400007D0054B1A6A044B08210A431A6200E0DF
:10055000C046BD4602B080BD003801408400002086
:100560008C000020880000200749084A084B9B1A8D
:1005700005DD00240859105104349C42FADB05487B
:100580008047054800470000700D0008000000206B
:100590006800002009060008190100081849194AD6
:1005A000002301E00B6004319142FBD3FFF7C0FE52
:1005B000FEE7FEE7FEE7FEE7FEE7FEE7FEE7FEE713
:1005C000FEE7FEE7FEE7FEE7FEE7FEE7FEE7FEE703
:1005D000FEE7FEE7FEE7FEE7FEE7FEE7FEE7FEE7F3
:1005E000FEE7FEE7FEE7FEE7FEE7FEE7FEE7FEE7E3
:1005F000FEE7FEE7FEE7FEE7FEE7FEE7FEE7FEE7D3
:1006000068000020A000002080B500AF1B4B1A68D6
:100610001A4B01210A431A60184B5A68174B1849A4
:100620000A405A60154B1A68144B16490A401A6062
:10063000124B1A68114B14490A401A600F4B5A6842
:100640000E4B12490A405A600C4BDA6A0B4B0F21D1
:100650008A43DA62094B1A6B084B0D490A401A6348
:10066000064B5A6B054B01218A435A63034B002208
:100670009A6000F00FF8C046BD4680BD00100240F1
:100680000CB8FF08FFFFF6FEFFFFFBFFFFFFC0FFF8
:10069000ECFEFFFF80B500AF1E4B11221A601E4A10
:1006A0001D4B52685A601C4A1B4B52685A601A4BC9
:1006B0005A68194B19490A405A60174B5A68164B29
:1006C000A02189030A435A60134B1A68124B8021F8
:1006D00049040A431A60C0460F4B1A6880239B04E2
:1006E0001340F9D00C4B5A680B4B03218A435A60D4
:1006F000094B5A68084B02210A435A60C046064B10
:100700005B680C221340082BF9D1C046C046BD4699
:1007100080BDC0460020024000100240FFFFC2FF23
:1007200080B582B000AF0200FB1D1A70FB1D1B7864
:100730001A001F23134001229A40034B1A60C0463F
:10074000BD4602B080BDC04600E100E090B583B078
:1007500000AF02003960FB1D1A70FB1D1B787F2B58
:1007600032D92F4AFB1D1B7819000F230B40083B81
:100770009B0806339B00D31804331B68FA1D1278BC
:10078000110003220A40D200FF2191400A00D24307
:100790001A4011003B689B01FF221A40FB1D1B7889
:1007A000180003230340DB009A401D48FB1D1B7803
:1007B0001C000F232340083B9B080A4306339B0081
:1007C000C31804331A6027E0164AFB1D1B785BB27E
:1007D0009B08C0339B009B58FA1D1278110003221E
:1007E0000A40D200FF2191400A00D2431A40110072
:1007F0003B689B01FF221A40FB1D1B781800032356
:100800000340DB009A400748FB1D1B785BB29B0846
:100810000A43C0339B001A50C046BD4603B090BD8A
:1008200000ED00E000E100E080B500AF1A4B9A69EE
:10083000194B8021C9010A439A61184B184ADA60A2
:10084000164B1A68154B802109020A431A60134B94
:100850001A68124B04210A431A60104B1A680F4B96
:1008600008210A431A600D4B0E4A5A610B4B1A6855
:100870000A4B01210A431A60084B1A68074B2021D2
:100880000A431A601B20FFF74BFF02211B20FFF7D2
:100890005DFFC046BD4680BD0010024000380140EB
:1008A00010270000FFFFFF0080B584B000AF786024
:1008B0000023FB600FE0FB687A68D3181A780B4BB3
:1008C00092B21A85FB680133FB60C046074BDB69B7
:1008D00040221340FAD0FB687A68D3181B78002BAB
:1008E000E9D1C046C046BD4604B080BD00380140D5
:1008F00080B58AB000AF7860396000237B620C233A
:10090000FB182D4A03CA03C31188198092789A7084
:1009100000233B620123FB617B681B782D2B08D1F0
:1009200001235B42FB613B68013B3B6001233B626F
:1009300035E07B681B782B2B31D10123FB613B68B1
:10094000013B3B6001233B6229E00023BB610DE0DA
:100950000C23FA18BB69D3181A783B6A7968CB184C
:100960001B789A420AD0BB690133BB610C23FA1889
:10097000BB69D3181B78002BEAD100E0C0467A6A25
:1009800013009B009B185B007B62BB697A6AD318DB
:100990007B623B6A01333B623B68013B3B603B68E7
:1009A000002BD2D1FA697B6A53437B627B6A1800C1
:1009B000BD460AB080BDC046800C000880B582B03C
:1009C00000AF786039600DE07B681B78002B0FD09A
:1009D0003B681B78002B0BD07B6801337B603B6846
:1009E00001333B607B681A783B681B789A42EBD0F6
:1009F0003B681B78002B01D1002301E001235B42FF
:100A00001800BD4602B080BD80B584B000AF7860EC
:100A1000234B1B68002B05D1224B1800FFF744FF26
:100A2000002338E0204A7B6811001800FFF7C6FF5A
:100A3000031E08D11D4B1800FFF736FF184B00228C
:100A40001A60012327E01A4A7B6811001800FFF79B
:100A5000B5FF031E17D17B68043303211800FFF78D
:100A600047FF0300FB60FB68DBB29B00DBB21800B2
:100A700000F024F80F4B1800FFF716FF084B002278
:100A80001A60002307E00C4B1800FFF70DFF044B22
:100A900000221A6000231800BD4604B080BDC04685
:100AA000840000208C0C0008940C00089C0C0008AA
:100AB0002C0D0008340D00083C0D000880B584B0F2
:100AC00000AF0200FB1D1A709023DB059A6990238A
:100AD000DB05802149020A439A61FB1DFA1D127849
:100AE0001A700023FB6032E0FB1D1B7801221340CB
:100AF00008D09023DB059A699023DB0504210A4383
:100B00009A6108E09023DB059A699023DB05802138
:100B1000C9020A439A619023DB059A699023DB0599
:100B200002210A439A61FB1DFA1D127852081A70BD
:100B30000120FFF793FB9023DB059A699023DB05E7
:100B4000802189020A439A61FB680133FB60FB68DC
:100B5000072BC9DD9023DB059A699023DB05012172
:100B60000A439A610120FFF779FB9023DB059A691C
:100B70009023DB05802149020A439A61C046BD46A5
:100B800004B080BD80B500AF9023DB059A69902347
:100B9000DB05802149020A439A619023DB059A69AB
:100BA0009023DB05802189020A439A619023DB05AB
:100BB0009A699023DB058021C9020A439A617F204C
:100BC000FFF77CFFC046BD4680BD0000084B10B556
:100BD0000400002B02D0002100E000BF054B186884
:100BE000836A002B00D09847200000F031F8C046FF
:100BF00000000000600D000870B500260C4D0D4C83
:100C0000641BA410A64209D1002600F023F80A4D67
:100C10000A4C641BA410A64205D170BDB300EB586A
:100C200098470136EEE7B300EB5898470136F2E7F4
:100C300060000020600000206000002064000020B0
:100C400003008218934200D1704719700133F9E70D
:100C5000FEE7C046F8B5C046F8BC08BC9E467047E3
:100C6000F8B5C046F8BC08BC9E4670474174746530
:100C70006E7561746F72207365742076312E30004A
:100C800030313233343536373839000041524D3E39
:100C90002000000068656C7000000000412078783A
:100CA00078202D20616D706C6974756465205B2BF4
:100CB0002F2D64426D5D0D0A46207878787878781B
:100CC00078202D206672657175656E6379205B6B87
:100CD000487A5D0D0A4D207878787878202D206D3F
:100CE0006F64756C6174696F6E205B487A5D0D0A84
:100CF0005020313233343536373839202D20736166
:100D000076652073657474696E67730D0A52202DC1
:100D10002072657365742C20532078202D206D651A
:100D20006D6F72790D0A0D0A000000004174742085
:100D3000000000004F4B0D0A00000000556E726568
:100D4000636F676E697A656420636F6D6D616E6451
:100D50002E205472792068656C702E0D0A000000F8
:080D600000000020000000006B
:080D6800A4F3FF7F010000006D
:100D70000000000000000000000000000000000073
:100D80000000000000000000000000000000000063
:100D90000000000000000000000000000000000053
:100DA0000000000000000000000000000000000043
:100DB0000000000000000000000000000000000033
:100DC0000000000000000000000000000000000023
:080DD000ED000008C500000859
:0400000508000000EF
:00000001FF
